{
  "_format": "hh-sol-artifact-1",
  "contractName": "PayerBadge",
  "sourceName": "contracts/PayerBadge.sol",
  "abi": [
    {
      "inputs": [],
      "stateMutability": "nonpayable",
      "type": "constructor"
    },
    {
      "anonymous": false,
      "inputs": [
        {
          "indexed": true,
          "internalType": "address",
          "name": "owner",
          "type": "address"
        },
        {
          "indexed": true,
          "internalType": "address",
          "name": "approved",
          "type": "address"
        },
        {
          "indexed": true,
          "internalType": "uint256",
          "name": "tokenId",
          "type": "uint256"
        }
      ],
      "name": "Approval",
      "type": "event"
    },
    {
      "anonymous": false,
      "inputs": [
        {
          "indexed": true,
          "internalType": "address",
          "name": "owner",
          "type": "address"
        },
        {
          "indexed": true,
          "internalType": "address",
          "name": "operator",
          "type": "address"
        },
        {
          "indexed": false,
          "internalType": "bool",
          "name": "approved",
          "type": "bool"
        }
      ],
      "name": "ApprovalForAll",
      "type": "event"
    },
    {
      "anonymous": false,
      "inputs": [
        {
          "indexed": true,
          "internalType": "address",
          "name": "user",
          "type": "address"
        },
        {
          "indexed": true,
          "internalType": "uint256",
          "name": "tokenId",
          "type": "uint256"
        },
        {
          "indexed": false,
          "internalType": "string",
          "name": "rarity",
          "type": "string"
        }
      ],
      "name": "BadgeMinted",
      "type": "event"
    },
    {
      "anonymous": false,
      "inputs": [
        {
          "indexed": true,
          "internalType": "uint256",
          "name": "tokenId",
          "type": "uint256"
        },
        {
          "indexed": false,
          "internalType": "uint256",
          "name": "totalPaid",
          "type": "uint256"
        },
        {
          "indexed": false,
          "internalType": "uint256",
          "name": "sessionsPaid",
          "type": "uint256"
        }
      ],
      "name": "BadgeUpdated",
      "type": "event"
    },
    {
      "anonymous": false,
      "inputs": [
        {
          "indexed": true,
          "internalType": "address",
          "name": "previousOwner",
          "type": "address"
        },
        {
          "indexed": true,
          "internalType": "address",
          "name": "newOwner",
          "type": "address"
        }
      ],
      "name": "OwnershipTransferred",
      "type": "event"
    },
    {
      "anonymous": false,
      "inputs": [
        {
          "indexed": true,
          "internalType": "address",
          "name": "from",
          "type": "address"
        },
        {
          "indexed": true,
          "internalType": "address",
          "name": "to",
          "type": "address"
        },
        {
          "indexed": true,
          "internalType": "uint256",
          "name": "tokenId",
          "type": "uint256"
        }
      ],
      "name": "Transfer",
      "type": "event"
    },
    {
      "inputs": [
        {
          "internalType": "address",
          "name": "to",
          "type": "address"
        },
        {
          "internalType": "uint256",
          "name": "tokenId",
          "type": "uint256"
        }
      ],
      "name": "approve",
      "outputs": [],
      "stateMutability": "nonpayable",
      "type": "function"
    },
    {
      "inputs": [
        {
          "internalType": "uint256",
          "name": "",
          "type": "uint256"
        }
      ],
      "name": "badges",
      "outputs": [
        {
          "internalType": "uint256",
          "name": "totalPaid",
          "type": "uint256"
        },
        {
          "internalType": "uint256",
          "name": "sessionsPaid",
          "type": "uint256"
        },
        {
          "internalType": "uint256",
          "name": "lastPaidAt",
          "type": "uint256"
        },
        {
          "internalType": "string",
          "name": "rarity",
          "type": "string"
        }
      ],
      "stateMutability": "view",
      "type": "function"
    },
    {
      "inputs": [
        {
          "internalType": "address",
          "name": "owner",
          "type": "address"
        }
      ],
      "name": "balanceOf",
      "outputs": [
        {
          "internalType": "uint256",
          "name": "",
          "type": "uint256"
        }
      ],
      "stateMutability": "view",
      "type": "function"
    },
    {
      "inputs": [
        {
          "internalType": "uint256",
          "name": "tokenId",
          "type": "uint256"
        }
      ],
      "name": "getApproved",
      "outputs": [
        {
          "internalType": "address",
          "name": "",
          "type": "address"
        }
      ],
      "stateMutability": "view",
      "type": "function"
    },
    {
      "inputs": [
        {
          "internalType": "address",
          "name": "user",
          "type": "address"
        }
      ],
      "name": "getBadge",
      "outputs": [
        {
          "components": [
            {
              "internalType": "uint256",
              "name": "totalPaid",
              "type": "uint256"
            },
            {
              "internalType": "uint256",
              "name": "sessionsPaid",
              "type": "uint256"
            },
            {
              "internalType": "uint256",
              "name": "lastPaidAt",
              "type": "uint256"
            },
            {
              "internalType": "string",
              "name": "rarity",
              "type": "string"
            }
          ],
          "internalType": "struct PayerBadge.Badge",
          "name": "",
          "type": "tuple"
        }
      ],
      "stateMutability": "view",
      "type": "function"
    },
    {
      "inputs": [
        {
          "internalType": "address",
          "name": "owner",
          "type": "address"
        },
        {
          "internalType": "address",
          "name": "operator",
          "type": "address"
        }
      ],
      "name": "isApprovedForAll",
      "outputs": [
        {
          "internalType": "bool",
          "name": "",
          "type": "bool"
        }
      ],
      "stateMutability": "view",
      "type": "function"
    },
    {
      "inputs": [
        {
          "internalType": "address",
          "name": "to",
          "type": "address"
        }
      ],
      "name": "mintBadge",
      "outputs": [
        {
          "internalType": "uint256",
          "name": "",
          "type": "uint256"
        }
      ],
      "stateMutability": "nonpayable",
      "type": "function"
    },
    {
      "inputs": [],
      "name": "name",
      "outputs": [
        {
          "internalType": "string",
          "name": "",
          "type": "string"
        }
      ],
      "stateMutability": "view",
      "type": "function"
    },
    {
      "inputs": [],
      "name": "owner",
      "outputs": [
        {
          "internalType": "address",
          "name": "",
          "type": "address"
        }
      ],
      "stateMutability": "view",
      "type": "function"
    },
    {
      "inputs": [
        {
          "internalType": "uint256",
          "name": "tokenId",
          "type": "uint256"
        }
      ],
      "name": "ownerOf",
      "outputs": [
        {
          "internalType": "address",
          "name": "",
          "type": "address"
        }
      ],
      "stateMutability": "view",
      "type": "function"
    },
    {
      "inputs": [],
      "name": "renounceOwnership",
      "outputs": [],
      "stateMutability": "nonpayable",
      "type": "function"
    },
    {
      "inputs": [
        {
          "internalType": "address",
          "name": "from",
          "type": "address"
        },
        {
          "internalType": "address",
          "name": "to",
          "type": "address"
        },
        {
          "internalType": "uint256",
          "name": "tokenId",
          "type": "uint256"
        }
      ],
      "name": "safeTransferFrom",
      "outputs": [],
      "stateMutability": "nonpayable",
      "type": "function"
    },
    {
      "inputs": [
        {
          "internalType": "address",
          "name": "from",
          "type": "address"
        },
        {
          "internalType": "address",
          "name": "to",
          "type": "address"
        },
        {
          "internalType": "uint256",
          "name": "tokenId",
          "type": "uint256"
        },
        {
          "internalType": "bytes",
          "name": "data",
          "type": "bytes"
        }
      ],
      "name": "safeTransferFrom",
      "outputs": [],
      "stateMutability": "nonpayable",
      "type": "function"
    },
    {
      "inputs": [
        {
          "internalType": "address",
          "name": "operator",
          "type": "address"
        },
        {
          "internalType": "bool",
          "name": "approved",
          "type": "bool"
        }
      ],
      "name": "setApprovalForAll",
      "outputs": [],
      "stateMutability": "nonpayable",
      "type": "function"
    },
    {
      "inputs": [
        {
          "internalType": "bytes4",
          "name": "interfaceId",
          "type": "bytes4"
        }
      ],
      "name": "supportsInterface",
      "outputs": [
        {
          "internalType": "bool",
          "name": "",
          "type": "bool"
        }
      ],
      "stateMutability": "view",
      "type": "function"
    },
    {
      "inputs": [],
      "name": "symbol",
      "outputs": [
        {
          "internalType": "string",
          "name": "",
          "type": "string"
        }
      ],
      "stateMutability": "view",
      "type": "function"
    },
    {
      "inputs": [
        {
          "internalType": "uint256",
          "name": "tokenId",
          "type": "uint256"
        }
      ],
      "name": "tokenURI",
      "outputs": [
        {
          "internalType": "string",
          "name": "",
          "type": "string"
        }
      ],
      "stateMutability": "view",
      "type": "function"
    },
    {
      "inputs": [
        {
          "internalType": "address",
          "name": "from",
          "type": "address"
        },
        {
          "internalType": "address",
          "name": "to",
          "type": "address"
        },
        {
          "internalType": "uint256",
          "name": "tokenId",
          "type": "uint256"
        }
      ],
      "name": "transferFrom",
      "outputs": [],
      "stateMutability": "nonpayable",
      "type": "function"
    },
    {
      "inputs": [
        {
          "internalType": "address",
          "name": "newOwner",
          "type": "address"
        }
      ],
      "name": "transferOwnership",
      "outputs": [],
      "stateMutability": "nonpayable",
      "type": "function"
    },
    {
      "inputs": [
        {
          "internalType": "address",
          "name": "user",
          "type": "address"
        },
        {
          "internalType": "uint256",
          "name": "amount",
          "type": "uint256"
        }
      ],
      "name": "updateBadge",
      "outputs": [],
      "stateMutability": "nonpayable",
      "type": "function"
    },
    {
      "inputs": [
        {
          "internalType": "address",
          "name": "",
          "type": "address"
        }
      ],
      "name": "userBadges",
      "outputs": [
        {
          "internalType": "uint256",
          "name": "",
          "type": "uint256"
        }
      ],
      "stateMutability": "view",
      "type": "function"
    }
  ],
  "bytecode": "0x608060405260016007553480156200001657600080fd5b506040518060400160405280600c81526020017f50617965657220426164676500000000000000000000000000000000000000008152506040518060400160405280600881526020017f5041594241444745000000000000000000000000000000000000000000000000815250816000908162000094919062000417565b508060019081620000a6919062000417565b505050620000c9620000bd620000cf60201b60201c565b620000d760201b60201c565b620004fe565b600033905090565b6000600660009054906101000a900473ffffffffffffffffffffffffffffffffffffffff16905081600660006101000a81548173ffffffffffffffffffffffffffffffffffffffff021916908373ffffffffffffffffffffffffffffffffffffffff1602179055508173ffffffffffffffffffffffffffffffffffffffff168173ffffffffffffffffffffffffffffffffffffffff167f8be0079c531659141344cd1fd0a4f28419497f9722a3daafe3b4186f6b6457e060405160405180910390a35050565b600081519050919050565b7f4e487b7100000000000000000000000000000000000000000000000000000000600052604160045260246000fd5b7f4e487b7100000000000000000000000000000000000000000000000000000000600052602260045260246000fd5b600060028204905060018216806200021f57607f821691505b602082108103620002355762000234620001d7565b5b50919050565b60008190508160005260206000209050919050565b60006020601f8301049050919050565b600082821b905092915050565b6000600883026200029f7fffffffffffffffffffffffffffffffffffffffffffffffffffffffffffffffff8262000260565b620002ab868362000260565b95508019841693508086168417925050509392505050565b6000819050919050565b6000819050919050565b6000620002f8620002f2620002ec84620002c3565b620002cd565b620002c3565b9050919050565b6000819050919050565b6200031483620002d7565b6200032c6200032382620002ff565b8484546200026d565b825550505050565b600090565b6200034362000334565b6200035081848462000309565b505050565b5b8181101562000378576200036c60008262000339565b60018101905062000356565b5050565b601f821115620003c75762000391816200023b565b6200039c8462000250565b81016020851015620003ac578190505b620003c4620003bb8562000250565b83018262000355565b50505b505050565b600082821c905092915050565b6000620003ec60001984600802620003cc565b1980831691505092915050565b6000620004078383620003d9565b9150826002028217905092915050565b62000422826200019d565b67ffffffffffffffff8111156200043e576200043d620001a8565b5b6200044a825462000206565b620004578282856200037c565b600060209050601f8311600181146200048f57600084156200047a578287015190505b620004868582620003f9565b865550620004f6565b601f1984166200049f866200023b565b60005b82811015620004c957848901518255600182019150602085019450602081019050620004a2565b86831015620004e95784890151620004e5601f891682620003d9565b8355505b6001600288020188555050505b505050505050565b6137d7806200050e6000396000f3fe608060405234801561001057600080fd5b50600436106101375760003560e01c80638da5cb5b116100b8578063b88d4fde1161007c578063b88d4fde1461034f578063c254de881461036b578063c87b56dd1461039b578063e985e9c5146103cb578063f2fde38b146103fb578063f5474e121461041757610137565b80638da5cb5b146102a857806391aaaf37146102c657806395d89b41146102e257806398e36d8b14610300578063a22cb4651461033357610137565b806342842e0e116100ff57806342842e0e146101f25780634a36f6e41461020e5780636352211e1461023e57806370a082311461026e578063715018a61461029e57610137565b806301ffc9a71461013c57806306fdde031461016c578063081812fc1461018a578063095ea7b3146101ba57806323b872dd146101d6575b600080fd5b61015660048036038101906101519190612221565b610447565b6040516101639190612269565b60405180910390f35b610174610529565b6040516101819190612314565b60405180910390f35b6101a4600480360381019061019f919061236c565b6105bb565b6040516101b191906123da565b60405180910390f35b6101d460048036038101906101cf9190612421565b610601565b005b6101f060048036038101906101eb9190612461565b610718565b005b61020c60048036038101906102079190612461565b610778565b005b610228600480360381019061022391906124b4565b610798565b60405161023591906124f0565b60405180910390f35b6102586004803603810190610253919061236c565b610985565b60405161026591906123da565b60405180910390f35b610288600480360381019061028391906124b4565b610a0b565b60405161029591906124f0565b60405180910390f35b6102a6610ac2565b005b6102b0610ad6565b6040516102bd91906123da565b60405180910390f35b6102e060048036038101906102db9190612421565b610b00565b005b6102ea610dab565b6040516102f79190612314565b60405180910390f35b61031a6004803603810190610315919061236c565b610e3d565b60405161032a949392919061250b565b60405180910390f35b61034d60048036038101906103489190612583565b610ef5565b005b610369600480360381019061036491906126f8565b610f0b565b005b610385600480360381019061038091906124b4565b610f6d565b6040516103929190612837565b60405180910390f35b6103b560048036038101906103b0919061236c565b6110d2565b6040516103c29190612314565b60405180910390f35b6103e560048036038101906103e09190612859565b6111dc565b6040516103f29190612269565b60405180910390f35b610415600480360381019061041091906124b4565b611270565b005b610431600480360381019061042c91906124b4565b6112f3565b60405161043e91906124f0565b60405180910390f35b60007f80ac58cd000000000000000000000000000000000000000000000000000000007bffffffffffffffffffffffffffffffffffffffffffffffffffffffff1916827bffffffffffffffffffffffffffffffffffffffffffffffffffffffff1916148061051257507f5b5e139f000000000000000000000000000000000000000000000000000000007bffffffffffffffffffffffffffffffffffffffffffffffffffffffff1916827bffffffffffffffffffffffffffffffffffffffffffffffffffffffff1916145b8061052257506105218261130b565b5b9050919050565b606060008054610538906128c8565b80601f0160208091040260200160405190810160405280929190818152602001828054610564906128c8565b80156105b15780601f10610586576101008083540402835291602001916105b1565b820191906000526020600020905b81548152906001019060200180831161059457829003601f168201915b5050505050905090565b60006105c682611375565b6004600083815260200190815260200160002060009054906101000a900473ffffffffffffffffffffffffffffffffffffffff169050919050565b600061060c82610985565b90508073ffffffffffffffffffffffffffffffffffffffff168373ffffffffffffffffffffffffffffffffffffffff160361067c576040517f08c379a00000000000000000000000000000000000000000000000000000000081526004016106739061296b565b60405180910390fd5b8073ffffffffffffffffffffffffffffffffffffffff1661069b6113c0565b73ffffffffffffffffffffffffffffffffffffffff1614806106ca57506106c9816106c46113c0565b6111dc565b5b610709576040517f08c379a0000000000000000000000000000000000000000000000000000000008152600401610700906129fd565b60405180910390fd5b61071383836113c8565b505050565b6107296107236113c0565b82611481565b610768576040517f08c379a000000000000000000000000000000000000000000000000000000000815260040161075f90612a8f565b60405180910390fd5b610773838383611516565b505050565b61079383838360405180602001604052806000815250610f0b565b505050565b60006107a261180f565b6000600960008473ffffffffffffffffffffffffffffffffffffffff1673ffffffffffffffffffffffffffffffffffffffff1681526020019081526020016000205414610824576040517f08c379a000000000000000000000000000000000000000000000000000000000815260040161081b90612afb565b60405180910390fd5b60006007600081548092919061083990612b4a565b919050559050610849838261188d565b80600960008573ffffffffffffffffffffffffffffffffffffffff1673ffffffffffffffffffffffffffffffffffffffff16815260200190815260200160002081905550604051806080016040528060008152602001600081526020014281526020016040518060400160405280600681526020017f42726f6e7a65000000000000000000000000000000000000000000000000000081525081525060086000838152602001908152602001600020600082015181600001556020820151816001015560408201518160020155606082015181600301908161092b9190612d3e565b50905050808373ffffffffffffffffffffffffffffffffffffffff167f6854c057dc92416510857b3daad5434a4202a4d192cf0f85d496d91974efaea360405161097490612e5c565b60405180910390a380915050919050565b60008061099183611aaa565b9050600073ffffffffffffffffffffffffffffffffffffffff168173ffffffffffffffffffffffffffffffffffffffff1603610a02576040517f08c379a00000000000000000000000000000000000000000000000000000000081526004016109f990612ec8565b60405180910390fd5b80915050919050565b60008073ffffffffffffffffffffffffffffffffffffffff168273ffffffffffffffffffffffffffffffffffffffff1603610a7b576040517f08c379a0000000000000000000000000000000000000000000000000000000008152600401610a7290612f5a565b60405180910390fd5b600360008373ffffffffffffffffffffffffffffffffffffffff1673ffffffffffffffffffffffffffffffffffffffff168152602001908152602001600020549050919050565b610aca61180f565b610ad46000611ae7565b565b6000600660009054906101000a900473ffffffffffffffffffffffffffffffffffffffff16905090565b610b0861180f565b6000600960008473ffffffffffffffffffffffffffffffffffffffff1673ffffffffffffffffffffffffffffffffffffffff16815260200190815260200160002054905060008103610b8f576040517f08c379a0000000000000000000000000000000000000000000000000000000008152600401610b8690612fc6565b60405180910390fd5b600060086000838152602001908152602001600020905082816000016000828254610bba9190612fe6565b925050819055506001816001016000828254610bd69190612fe6565b9250508190555042816002018190555068056bc75e2d63100000816000015410610c46576040518060400160405280600781526020017f4469616d6f6e6400000000000000000000000000000000000000000000000000815250816003019081610c409190612d3e565b50610d63565b6802b5e3af16b1880000816000015410610ca6576040518060400160405280600481526020017f476f6c6400000000000000000000000000000000000000000000000000000000815250816003019081610ca09190612d3e565b50610d62565b678ac7230489e80000816000015410610d05576040518060400160405280600681526020017f53696c7665720000000000000000000000000000000000000000000000000000815250816003019081610cff9190612d3e565b50610d61565b670de0b6b3a7640000816000015410610d60576040518060400160405280600681526020017f42726f6e7a650000000000000000000000000000000000000000000000000000815250816003019081610d5e9190612d3e565b505b5b5b5b817fc3811458b9097bab2f8e293d8fcb3fadc65585333170451488598d24dc82f17a82600001548360010154604051610d9d92919061301a565b60405180910390a250505050565b606060018054610dba906128c8565b80601f0160208091040260200160405190810160405280929190818152602001828054610de6906128c8565b8015610e335780601f10610e0857610100808354040283529160200191610e33565b820191906000526020600020905b815481529060010190602001808311610e1657829003601f168201915b5050505050905090565b6008602052806000526040600020600091509050806000015490806001015490806002015490806003018054610e72906128c8565b80601f0160208091040260200160405190810160405280929190818152602001828054610e9e906128c8565b8015610eeb5780601f10610ec057610100808354040283529160200191610eeb565b820191906000526020600020905b815481529060010190602001808311610ece57829003601f168201915b5050505050905084565b610f07610f006113c0565b8383611bad565b5050565b610f1c610f166113c0565b83611481565b610f5b576040517f08c379a0000000000000000000000000000000000000000000000000000000008152600401610f5290612a8f565b60405180910390fd5b610f6784848484611d19565b50505050565b610f7561218d565b6000600960008473ffffffffffffffffffffffffffffffffffffffff1673ffffffffffffffffffffffffffffffffffffffff16815260200190815260200160002054905060008103610ffc576040517f08c379a0000000000000000000000000000000000000000000000000000000008152600401610ff390612fc6565b60405180910390fd5b60086000828152602001908152602001600020604051806080016040529081600082015481526020016001820154815260200160028201548152602001600382018054611048906128c8565b80601f0160208091040260200160405190810160405280929190818152602001828054611074906128c8565b80156110c15780601f10611096576101008083540402835291602001916110c1565b820191906000526020600020905b8154815290600101906020018083116110a457829003601f168201915b505050505081525050915050919050565b6060600060086000848152602001908152602001600020604051806080016040529081600082015481526020016001820154815260200160028201548152602001600382018054611122906128c8565b80601f016020809104026020016040519081016040528092919081815260200182805461114e906128c8565b801561119b5780601f106111705761010080835404028352916020019161119b565b820191906000526020600020905b81548152906001019060200180831161117e57829003601f168201915b50505050508152505090506111af83611d75565b81606001516040516020016111c5929190613247565b604051602081830303815290604052915050919050565b6000600560008473ffffffffffffffffffffffffffffffffffffffff1673ffffffffffffffffffffffffffffffffffffffff16815260200190815260200160002060008373ffffffffffffffffffffffffffffffffffffffff1673ffffffffffffffffffffffffffffffffffffffff16815260200190815260200160002060009054906101000a900460ff16905092915050565b61127861180f565b600073ffffffffffffffffffffffffffffffffffffffff168173ffffffffffffffffffffffffffffffffffffffff16036112e7576040517f08c379a00000000000000000000000000000000000000000000000000000000081526004016112de90613309565b60405180910390fd5b6112f081611ae7565b50565b60096020528060005260406000206000915090505481565b60007f01ffc9a7000000000000000000000000000000000000000000000000000000007bffffffffffffffffffffffffffffffffffffffffffffffffffffffff1916827bffffffffffffffffffffffffffffffffffffffffffffffffffffffff1916149050919050565b61137e81611e43565b6113bd576040517f08c379a00000000000000000000000000000000000000000000000000000000081526004016113b490612ec8565b60405180910390fd5b50565b600033905090565b816004600083815260200190815260200160002060006101000a81548173ffffffffffffffffffffffffffffffffffffffff021916908373ffffffffffffffffffffffffffffffffffffffff160217905550808273ffffffffffffffffffffffffffffffffffffffff1661143b83610985565b73ffffffffffffffffffffffffffffffffffffffff167f8c5be1e5ebec7d5bd14f71427d1e84f3dd0314c0f7b2291e5b200ac8c7c3b92560405160405180910390a45050565b60008061148d83610985565b90508073ffffffffffffffffffffffffffffffffffffffff168473ffffffffffffffffffffffffffffffffffffffff1614806114cf57506114ce81856111dc565b5b8061150d57508373ffffffffffffffffffffffffffffffffffffffff166114f5846105bb565b73ffffffffffffffffffffffffffffffffffffffff16145b91505092915050565b8273ffffffffffffffffffffffffffffffffffffffff1661153682610985565b73ffffffffffffffffffffffffffffffffffffffff161461158c576040517f08c379a00000000000000000000000000000000000000000000000000000000081526004016115839061339b565b60405180910390fd5b600073ffffffffffffffffffffffffffffffffffffffff168273ffffffffffffffffffffffffffffffffffffffff16036115fb576040517f08c379a00000000000000000000000000000000000000000000000000000000081526004016115f29061342d565b60405180910390fd5b6116088383836001611e84565b8273ffffffffffffffffffffffffffffffffffffffff1661162882610985565b73ffffffffffffffffffffffffffffffffffffffff161461167e576040517f08c379a00000000000000000000000000000000000000000000000000000000081526004016116759061339b565b60405180910390fd5b6004600082815260200190815260200160002060006101000a81549073ffffffffffffffffffffffffffffffffffffffff02191690556001600360008573ffffffffffffffffffffffffffffffffffffffff1673ffffffffffffffffffffffffffffffffffffffff168152602001908152602001600020600082825403925050819055506001600360008473ffffffffffffffffffffffffffffffffffffffff1673ffffffffffffffffffffffffffffffffffffffff16815260200190815260200160002060008282540192505081905550816002600083815260200190815260200160002060006101000a81548173ffffffffffffffffffffffffffffffffffffffff021916908373ffffffffffffffffffffffffffffffffffffffff160217905550808273ffffffffffffffffffffffffffffffffffffffff168473ffffffffffffffffffffffffffffffffffffffff167fddf252ad1be2c89b69c2b068fc378daa952ba7f163c4a11628f55a4df523b3ef60405160405180910390a461180a8383836001611e8a565b505050565b6118176113c0565b73ffffffffffffffffffffffffffffffffffffffff16611835610ad6565b73ffffffffffffffffffffffffffffffffffffffff161461188b576040517f08c379a000000000000000000000000000000000000000000000000000000000815260040161188290613499565b60405180910390fd5b565b600073ffffffffffffffffffffffffffffffffffffffff168273ffffffffffffffffffffffffffffffffffffffff16036118fc576040517f08c379a00000000000000000000000000000000000000000000000000000000081526004016118f390613505565b60405180910390fd5b61190581611e43565b15611945576040517f08c379a000000000000000000000000000000000000000000000000000000000815260040161193c90613571565b60405180910390fd5b611953600083836001611e84565b61195c81611e43565b1561199c576040517f08c379a000000000000000000000000000000000000000000000000000000000815260040161199390613571565b60405180910390fd5b6001600360008473ffffffffffffffffffffffffffffffffffffffff1673ffffffffffffffffffffffffffffffffffffffff16815260200190815260200160002060008282540192505081905550816002600083815260200190815260200160002060006101000a81548173ffffffffffffffffffffffffffffffffffffffff021916908373ffffffffffffffffffffffffffffffffffffffff160217905550808273ffffffffffffffffffffffffffffffffffffffff16600073ffffffffffffffffffffffffffffffffffffffff167fddf252ad1be2c89b69c2b068fc378daa952ba7f163c4a11628f55a4df523b3ef60405160405180910390a4611aa6600083836001611e8a565b5050565b60006002600083815260200190815260200160002060009054906101000a900473ffffffffffffffffffffffffffffffffffffffff169050919050565b6000600660009054906101000a900473ffffffffffffffffffffffffffffffffffffffff16905081600660006101000a81548173ffffffffffffffffffffffffffffffffffffffff021916908373ffffffffffffffffffffffffffffffffffffffff1602179055508173ffffffffffffffffffffffffffffffffffffffff168173ffffffffffffffffffffffffffffffffffffffff167f8be0079c531659141344cd1fd0a4f28419497f9722a3daafe3b4186f6b6457e060405160405180910390a35050565b8173ffffffffffffffffffffffffffffffffffffffff168373ffffffffffffffffffffffffffffffffffffffff1603611c1b576040517f08c379a0000000000000000000000000000000000000000000000000000000008152600401611c12906135dd565b60405180910390fd5b80600560008573ffffffffffffffffffffffffffffffffffffffff1673ffffffffffffffffffffffffffffffffffffffff16815260200190815260200160002060008473ffffffffffffffffffffffffffffffffffffffff1673ffffffffffffffffffffffffffffffffffffffff16815260200190815260200160002060006101000a81548160ff0219169083151502179055508173ffffffffffffffffffffffffffffffffffffffff168373ffffffffffffffffffffffffffffffffffffffff167f17307eab39ab6107e8899845ad3d59bd9653f200f220920489ca2b5937696c3183604051611d0c9190612269565b60405180910390a3505050565b611d24848484611516565b611d3084848484611e90565b611d6f576040517f08c379a0000000000000000000000000000000000000000000000000000000008152600401611d669061366f565b60405180910390fd5b50505050565b606060006001611d8484612017565b01905060008167ffffffffffffffff811115611da357611da26125cd565b5b6040519080825280601f01601f191660200182016040528015611dd55781602001600182028036833780820191505090505b509050600082602001820190505b600115611e38578080600190039150507f3031323334353637383961626364656600000000000000000000000000000000600a86061a8153600a8581611e2c57611e2b61368f565b5b04945060008503611de3575b819350505050919050565b60008073ffffffffffffffffffffffffffffffffffffffff16611e6583611aaa565b73ffffffffffffffffffffffffffffffffffffffff1614159050919050565b50505050565b50505050565b6000611eb18473ffffffffffffffffffffffffffffffffffffffff1661216a565b1561200a578373ffffffffffffffffffffffffffffffffffffffff1663150b7a02611eda6113c0565b8786866040518563ffffffff1660e01b8152600401611efc9493929190613713565b6020604051808303816000875af1925050508015611f3857506040513d601f19601f82011682018060405250810190611f359190613774565b60015b611fba573d8060008114611f68576040519150601f19603f3d011682016040523d82523d6000602084013e611f6d565b606091505b506000815103611fb2576040517f08c379a0000000000000000000000000000000000000000000000000000000008152600401611fa99061366f565b60405180910390fd5b805181602001fd5b63150b7a0260e01b7bffffffffffffffffffffffffffffffffffffffffffffffffffffffff1916817bffffffffffffffffffffffffffffffffffffffffffffffffffffffff19161491505061200f565b600190505b949350505050565b600080600090507a184f03e93ff9f4daa797ed6e38ed64bf6a1f0100000000000000008310612075577a184f03e93ff9f4daa797ed6e38ed64bf6a1f010000000000000000838161206b5761206a61368f565b5b0492506040810190505b6d04ee2d6d415b85acef810000000083106120b2576d04ee2d6d415b85acef810000000083816120a8576120a761368f565b5b0492506020810190505b662386f26fc1000083106120e157662386f26fc1000083816120d7576120d661368f565b5b0492506010810190505b6305f5e100831061210a576305f5e1008381612100576120ff61368f565b5b0492506008810190505b612710831061212f5761271083816121255761212461368f565b5b0492506004810190505b6064831061215257606483816121485761214761368f565b5b0492506002810190505b600a8310612161576001810190505b80915050919050565b6000808273ffffffffffffffffffffffffffffffffffffffff163b119050919050565b6040518060800160405280600081526020016000815260200160008152602001606081525090565b6000604051905090565b600080fd5b600080fd5b60007fffffffff0000000000000000000000000000000000000000000000000000000082169050919050565b6121fe816121c9565b811461220957600080fd5b50565b60008135905061221b816121f5565b92915050565b600060208284031215612237576122366121bf565b5b60006122458482850161220c565b91505092915050565b60008115159050919050565b6122638161224e565b82525050565b600060208201905061227e600083018461225a565b92915050565b600081519050919050565b600082825260208201905092915050565b60005b838110156122be5780820151818401526020810190506122a3565b60008484015250505050565b6000601f19601f8301169050919050565b60006122e682612284565b6122f0818561228f565b93506123008185602086016122a0565b612309816122ca565b840191505092915050565b6000602082019050818103600083015261232e81846122db565b905092915050565b6000819050919050565b61234981612336565b811461235457600080fd5b50565b60008135905061236681612340565b92915050565b600060208284031215612382576123816121bf565b5b600061239084828501612357565b91505092915050565b600073ffffffffffffffffffffffffffffffffffffffff82169050919050565b60006123c482612399565b9050919050565b6123d4816123b9565b82525050565b60006020820190506123ef60008301846123cb565b92915050565b6123fe816123b9565b811461240957600080fd5b50565b60008135905061241b816123f5565b92915050565b60008060408385031215612438576124376121bf565b5b60006124468582860161240c565b925050602061245785828601612357565b9150509250929050565b60008060006060848603121561247a576124796121bf565b5b60006124888682870161240c565b93505060206124998682870161240c565b92505060406124aa86828701612357565b9150509250925092565b6000602082840312156124ca576124c96121bf565b5b60006124d88482850161240c565b91505092915050565b6124ea81612336565b82525050565b600060208201905061250560008301846124e1565b92915050565b600060808201905061252060008301876124e1565b61252d60208301866124e1565b61253a60408301856124e1565b818103606083015261254c81846122db565b905095945050505050565b6125608161224e565b811461256b57600080fd5b50565b60008135905061257d81612557565b92915050565b6000806040838503121561259a576125996121bf565b5b60006125a88582860161240c565b92505060206125b98582860161256e565b9150509250929050565b600080fd5b600080fd5b7f4e487b7100000000000000000000000000000000000000000000000000000000600052604160045260246000fd5b612605826122ca565b810181811067ffffffffffffffff82111715612624576126236125cd565b5b80604052505050565b60006126376121b5565b905061264382826125fc565b919050565b600067ffffffffffffffff821115612663576126626125cd565b5b61266c826122ca565b9050602081019050919050565b82818337600083830152505050565b600061269b61269684612648565b61262d565b9050828152602081018484840111156126b7576126b66125c8565b5b6126c2848285612679565b509392505050565b600082601f8301126126df576126de6125c3565b5b81356126ef848260208601612688565b91505092915050565b60008060008060808587031215612712576127116121bf565b5b60006127208782880161240c565b94505060206127318782880161240c565b935050604061274287828801612357565b925050606085013567ffffffffffffffff811115612763576127626121c4565b5b61276f878288016126ca565b91505092959194509250565b61278481612336565b82525050565b600082825260208201905092915050565b60006127a682612284565b6127b0818561278a565b93506127c08185602086016122a0565b6127c9816122ca565b840191505092915050565b60006080830160008301516127ec600086018261277b565b5060208301516127ff602086018261277b565b506040830151612812604086018261277b565b506060830151848203606086015261282a828261279b565b9150508091505092915050565b6000602082019050818103600083015261285181846127d4565b905092915050565b600080604083850312156128705761286f6121bf565b5b600061287e8582860161240c565b925050602061288f8582860161240c565b9150509250929050565b7f4e487b7100000000000000000000000000000000000000000000000000000000600052602260045260246000fd5b600060028204905060018216806128e057607f821691505b6020821081036128f3576128f2612899565b5b50919050565b7f4552433732313a20617070726f76616c20746f2063757272656e74206f776e6560008201527f7200000000000000000000000000000000000000000000000000000000000000602082015250565b600061295560218361228f565b9150612960826128f9565b604082019050919050565b6000602082019050818103600083015261298481612948565b9050919050565b7f4552433732313a20617070726f76652063616c6c6572206973206e6f7420746f60008201527f6b656e206f776e6572206f7220617070726f76656420666f7220616c6c000000602082015250565b60006129e7603d8361228f565b91506129f28261298b565b604082019050919050565b60006020820190508181036000830152612a16816129da565b9050919050565b7f4552433732313a2063616c6c6572206973206e6f7420746f6b656e206f776e6560008201527f72206f7220617070726f76656400000000000000000000000000000000000000602082015250565b6000612a79602d8361228f565b9150612a8482612a1d565b604082019050919050565b60006020820190508181036000830152612aa881612a6c565b9050919050565b7f5573657220616c72656164792068617320612062616467650000000000000000600082015250565b6000612ae560188361228f565b9150612af082612aaf565b602082019050919050565b60006020820190508181036000830152612b1481612ad8565b9050919050565b7f4e487b7100000000000000000000000000000000000000000000000000000000600052601160045260246000fd5b6000612b5582612336565b91507fffffffffffffffffffffffffffffffffffffffffffffffffffffffffffffffff8203612b8757612b86612b1b565b5b600182019050919050565b60008190508160005260206000209050919050565b60006020601f8301049050919050565b600082821b905092915050565b600060088302612bf47fffffffffffffffffffffffffffffffffffffffffffffffffffffffffffffffff82612bb7565b612bfe8683612bb7565b95508019841693508086168417925050509392505050565b6000819050919050565b6000612c3b612c36612c3184612336565b612c16565b612336565b9050919050565b6000819050919050565b612c5583612c20565b612c69612c6182612c42565b848454612bc4565b825550505050565b600090565b612c7e612c71565b612c89818484612c4c565b505050565b5b81811015612cad57612ca2600082612c76565b600181019050612c8f565b5050565b601f821115612cf257612cc381612b92565b612ccc84612ba7565b81016020851015612cdb578190505b612cef612ce785612ba7565b830182612c8e565b50505b505050565b600082821c905092915050565b6000612d1560001984600802612cf7565b1980831691505092915050565b6000612d2e8383612d04565b9150826002028217905092915050565b612d4782612284565b67ffffffffffffffff811115612d6057612d5f6125cd565b5b612d6a82546128c8565b612d75828285612cb1565b600060209050601f831160018114612da85760008415612d96578287015190505b612da08582612d22565b865550612e08565b601f198416612db686612b92565b60005b82811015612dde57848901518255600182019150602085019450602081019050612db9565b86831015612dfb5784890151612df7601f891682612d04565b8355505b6001600288020188555050505b505050505050565b7f42726f6e7a650000000000000000000000000000000000000000000000000000600082015250565b6000612e4660068361228f565b9150612e5182612e10565b602082019050919050565b60006020820190508181036000830152612e7581612e39565b9050919050565b7f4552433732313a20696e76616c696420746f6b656e2049440000000000000000600082015250565b6000612eb260188361228f565b9150612ebd82612e7c565b602082019050919050565b60006020820190508181036000830152612ee181612ea5565b9050919050565b7f4552433732313a2061646472657373207a65726f206973206e6f74206120766160008201527f6c6964206f776e65720000000000000000000000000000000000000000000000602082015250565b6000612f4460298361228f565b9150612f4f82612ee8565b604082019050919050565b60006020820190508181036000830152612f7381612f37565b9050919050565b7f5573657220686173206e6f206261646765000000000000000000000000000000600082015250565b6000612fb060118361228f565b9150612fbb82612f7a565b602082019050919050565b60006020820190508181036000830152612fdf81612fa3565b9050919050565b6000612ff182612336565b9150612ffc83612336565b925082820190508082111561301457613013612b1b565b5b92915050565b600060408201905061302f60008301856124e1565b61303c60208301846124e1565b9392505050565b600081905092915050565b7f646174613a6170706c69636174696f6e2f6a736f6e3b6261736536342c000000600082015250565b6000613084601d83613043565b915061308f8261304e565b601d82019050919050565b7f65794a755957316c496a6f69554746355a57567949454a685a47646c49434d69600082015250565b60006130d0602083613043565b91506130db8261309a565b602082019050919050565b60006130f182612284565b6130fb8185613043565b935061310b8185602086016122a0565b80840191505092915050565b7f49697767496d526c63324e796158423061573975496a6f69515342695957526e60008201527f5a53426c59584a755a575167596e6b67634746356157356e49474a706247787a60208201527f49473975494642686557566c6369497349434a686448527961574a316447567a60408201527f496a706265794a30636d4670644639306558426c496a6f69556d46796158523560608201527f49697767496e5a686248566c496a6f6900000000000000000000000000000000608082015250565b60006131e5609083613043565b91506131f082613117565b609082019050919050565b7f227d5d7d00000000000000000000000000000000000000000000000000000000600082015250565b6000613231600483613043565b915061323c826131fb565b600482019050919050565b600061325282613077565b915061325d826130c3565b915061326982856130e6565b9150613274826131d8565b915061328082846130e6565b915061328b82613224565b91508190509392505050565b7f4f776e61626c653a206e6577206f776e657220697320746865207a65726f206160008201527f6464726573730000000000000000000000000000000000000000000000000000602082015250565b60006132f360268361228f565b91506132fe82613297565b604082019050919050565b60006020820190508181036000830152613322816132e6565b9050919050565b7f4552433732313a207472616e736665722066726f6d20696e636f72726563742060008201527f6f776e6572000000000000000000000000000000000000000000000000000000602082015250565b600061338560258361228f565b915061339082613329565b604082019050919050565b600060208201905081810360008301526133b481613378565b9050919050565b7f4552433732313a207472616e7366657220746f20746865207a65726f2061646460008201527f7265737300000000000000000000000000000000000000000000000000000000602082015250565b600061341760248361228f565b9150613422826133bb565b604082019050919050565b600060208201905081810360008301526134468161340a565b9050919050565b7f4f776e61626c653a2063616c6c6572206973206e6f7420746865206f776e6572600082015250565b600061348360208361228f565b915061348e8261344d565b602082019050919050565b600060208201905081810360008301526134b281613476565b9050919050565b7f4552433732313a206d696e7420746f20746865207a65726f2061646472657373600082015250565b60006134ef60208361228f565b91506134fa826134b9565b602082019050919050565b6000602082019050818103600083015261351e816134e2565b9050919050565b7f4552433732313a20746f6b656e20616c7265616479206d696e74656400000000600082015250565b600061355b601c8361228f565b915061356682613525565b602082019050919050565b6000602082019050818103600083015261358a8161354e565b9050919050565b7f4552433732313a20617070726f766520746f2063616c6c657200000000000000600082015250565b60006135c760198361228f565b91506135d282613591565b602082019050919050565b600060208201905081810360008301526135f6816135ba565b9050919050565b7f4552433732313a207472616e7366657220746f206e6f6e20455243373231526560008201527f63656976657220696d706c656d656e7465720000000000000000000000000000602082015250565b600061365960328361228f565b9150613664826135fd565b604082019050919050565b600060208201905081810360008301526136888161364c565b9050919050565b7f4e487b7100000000000000000000000000000000000000000000000000000000600052601260045260246000fd5b600081519050919050565b600082825260208201905092915050565b60006136e5826136be565b6136ef81856136c9565b93506136ff8185602086016122a0565b613708816122ca565b840191505092915050565b600060808201905061372860008301876123cb565b61373560208301866123cb565b61374260408301856124e1565b818103606083015261375481846136da565b905095945050505050565b60008151905061376e816121f5565b92915050565b60006020828403121561378a576137896121bf565b5b60006137988482850161375f565b9150509291505056fea2646970667358221220efa3ccb1da9ab55e30d64792f02d383b63a03e0a5c82d88d2d4fff0f3f74827464736f6c63430008180033",
  "linkReferences": {},
  "deployedLinkReferences": {}
}