{
  "_format": "hh-sol-artifact-1",
  "contractName": "Payeer",
  "sourceName": "contracts/Payeer.sol",
  "abi": [
    {
      "inputs": [],
      "stateMutability": "nonpayable",
      "type": "constructor"
    },
    {
      "inputs": [
        {
          "internalType": "address",
          "name": "have",
          "type": "address"
        },
        {
          "internalType": "address",
          "name": "want",
          "type": "address"
        }
      ],
      "name": "OnlyCoordinatorCanFulfill",
      "type": "error"
    },
    {
      "anonymous": false,
      "inputs": [
        {
          "indexed": true,
          "internalType": "uint256",
          "name": "sessionId",
          "type": "uint256"
        },
        {
          "indexed": false,
          "internalType": "address",
          "name": "participant",
          "type": "address"
        }
      ],
      "name": "ParticipantJoined",
      "type": "event"
    },
    {
      "anonymous": false,
      "inputs": [
        {
          "indexed": true,
          "internalType": "uint256",
          "name": "sessionId",
          "type": "uint256"
        },
        {
          "indexed": true,
          "internalType": "address",
          "name": "payer",
          "type": "address"
        }
      ],
      "name": "PayerSelected",
      "type": "event"
    },
    {
      "anonymous": false,
      "inputs": [
        {
          "indexed": true,
          "internalType": "uint256",
          "name": "sessionId",
          "type": "uint256"
        },
        {
          "indexed": true,
          "internalType": "address",
          "name": "payer",
          "type": "address"
        },
        {
          "indexed": false,
          "internalType": "uint256",
          "name": "amount",
          "type": "uint256"
        }
      ],
      "name": "PaymentCompleted",
      "type": "event"
    },
    {
      "anonymous": false,
      "inputs": [
        {
          "indexed": true,
          "internalType": "uint256",
          "name": "requestId",
          "type": "uint256"
        },
        {
          "indexed": true,
          "internalType": "uint256",
          "name": "sessionId",
          "type": "uint256"
        }
      ],
      "name": "RandomnessRequested",
      "type": "event"
    },
    {
      "anonymous": false,
      "inputs": [
        {
          "indexed": true,
          "internalType": "uint256",
          "name": "sessionId",
          "type": "uint256"
        },
        {
          "indexed": false,
          "internalType": "address[]",
          "name": "participants",
          "type": "address[]"
        },
        {
          "indexed": false,
          "internalType": "uint256",
          "name": "amount",
          "type": "uint256"
        }
      ],
      "name": "SessionCreated",
      "type": "event"
    },
    {
      "anonymous": false,
      "inputs": [
        {
          "indexed": true,
          "internalType": "uint256",
          "name": "sessionId",
          "type": "uint256"
        }
      ],
      "name": "SessionLocked",
      "type": "event"
    },
    {
      "inputs": [
        {
          "internalType": "uint256",
          "name": "_sessionId",
          "type": "uint256"
        }
      ],
      "name": "completePayment",
      "outputs": [],
      "stateMutability": "payable",
      "type": "function"
    },
    {
      "inputs": [
        {
          "internalType": "uint256",
          "name": "_amount",
          "type": "uint256"
        },
        {
          "internalType": "address",
          "name": "_merchant",
          "type": "address"
        }
      ],
      "name": "createLobby",
      "outputs": [
        {
          "internalType": "uint256",
          "name": "",
          "type": "uint256"
        }
      ],
      "stateMutability": "nonpayable",
      "type": "function"
    },
    {
      "inputs": [
        {
          "internalType": "address[]",
          "name": "_participants",
          "type": "address[]"
        },
        {
          "internalType": "uint256",
          "name": "_amount",
          "type": "uint256"
        },
        {
          "internalType": "address",
          "name": "_merchant",
          "type": "address"
        }
      ],
      "name": "createSession",
      "outputs": [
        {
          "internalType": "uint256",
          "name": "",
          "type": "uint256"
        }
      ],
      "stateMutability": "nonpayable",
      "type": "function"
    },
    {
      "inputs": [
        {
          "internalType": "uint256",
          "name": "_sessionId",
          "type": "uint256"
        }
      ],
      "name": "getSessionParticipants",
      "outputs": [
        {
          "internalType": "address[]",
          "name": "",
          "type": "address[]"
        }
      ],
      "stateMutability": "view",
      "type": "function"
    },
    {
      "inputs": [
        {
          "internalType": "uint256",
          "name": "_sessionId",
          "type": "uint256"
        }
      ],
      "name": "joinSession",
      "outputs": [],
      "stateMutability": "nonpayable",
      "type": "function"
    },
    {
      "inputs": [
        {
          "internalType": "uint256",
          "name": "_sessionId",
          "type": "uint256"
        }
      ],
      "name": "lockAndSelectPayer",
      "outputs": [],
      "stateMutability": "nonpayable",
      "type": "function"
    },
    {
      "inputs": [],
      "name": "payerBadgeContract",
      "outputs": [
        {
          "internalType": "contract IPayerBadge",
          "name": "",
          "type": "address"
        }
      ],
      "stateMutability": "view",
      "type": "function"
    },
    {
      "inputs": [
        {
          "internalType": "uint256",
          "name": "requestId",
          "type": "uint256"
        },
        {
          "internalType": "uint256[]",
          "name": "randomWords",
          "type": "uint256[]"
        }
      ],
      "name": "rawFulfillRandomWords",
      "outputs": [],
      "stateMutability": "nonpayable",
      "type": "function"
    },
    {
      "inputs": [
        {
          "internalType": "uint256",
          "name": "",
          "type": "uint256"
        }
      ],
      "name": "requestIdToSessionId",
      "outputs": [
        {
          "internalType": "uint256",
          "name": "",
          "type": "uint256"
        }
      ],
      "stateMutability": "view",
      "type": "function"
    },
    {
      "inputs": [
        {
          "internalType": "uint256",
          "name": "_sessionId",
          "type": "uint256"
        }
      ],
      "name": "selectPayer",
      "outputs": [],
      "stateMutability": "nonpayable",
      "type": "function"
    },
    {
      "inputs": [],
      "name": "sessionCount",
      "outputs": [
        {
          "internalType": "uint256",
          "name": "",
          "type": "uint256"
        }
      ],
      "stateMutability": "view",
      "type": "function"
    },
    {
      "inputs": [
        {
          "internalType": "uint256",
          "name": "",
          "type": "uint256"
        }
      ],
      "name": "sessions",
      "outputs": [
        {
          "internalType": "uint256",
          "name": "amount",
          "type": "uint256"
        },
        {
          "internalType": "address",
          "name": "merchant",
          "type": "address"
        },
        {
          "internalType": "address",
          "name": "selectedPayer",
          "type": "address"
        },
        {
          "internalType": "bool",
          "name": "completed",
          "type": "bool"
        },
        {
          "internalType": "bool",
          "name": "isLocked",
          "type": "bool"
        },
        {
          "internalType": "uint256",
          "name": "createdAt",
          "type": "uint256"
        },
        {
          "internalType": "uint256",
          "name": "requestId",
          "type": "uint256"
        }
      ],
      "stateMutability": "view",
      "type": "function"
    },
    {
      "inputs": [
        {
          "internalType": "address",
          "name": "_payerBadge",
          "type": "address"
        }
      ],
      "name": "setPayerBadgeContract",
      "outputs": [],
      "stateMutability": "nonpayable",
      "type": "function"
    }
  ],
  "bytecode": "0x60a0604052732ca8e0c643bde4c2e08ab1fa0da3401adad7734d600160006101000a81548173ffffffffffffffffffffffffffffffffffffffff021916908373ffffffffffffffffffffffffffffffffffffffff1602179055507f79d3d8832d904592c0bf9818b621522c988bb8b0c7cdc3b56d0f97c5b1e3c46460001b6002556104d2600360006101000a81548167ffffffffffffffff021916908367ffffffffffffffff160217905550620186a0600360086101000a81548163ffffffff021916908363ffffffff160217905550600380600c6101000a81548161ffff021916908361ffff16021790555060016003600e6101000a81548163ffffffff021916908363ffffffff16021790555034801561011a57600080fd5b50600160009054906101000a900473ffffffffffffffffffffffffffffffffffffffff168073ffffffffffffffffffffffffffffffffffffffff1660808173ffffffffffffffffffffffffffffffffffffffff168152505050600160009054906101000a900473ffffffffffffffffffffffffffffffffffffffff166000806101000a81548173ffffffffffffffffffffffffffffffffffffffff021916908373ffffffffffffffffffffffffffffffffffffffff16021790555060805161295c6101f7600039600081816108c6015261091a015261295c6000f3fe6080604052600436106100c25760003560e01c80637629c6941161007f578063a2c7ff0e11610059578063a2c7ff0e1461026f578063ace907a3146102ac578063c2829c03146102d5578063efa645d614610300576100c2565b80637629c694146101c65780637ca76516146101ef57806383c4b7a31461022c576100c2565b806305991eba146100c7578063173d3f70146100f05780631fe543e314610119578063485a4b83146101425780634f01c6f21461017f57806373cd83361461019b575b600080fd5b3480156100d357600080fd5b506100ee60048036038101906100e991906118bf565b61033d565b005b3480156100fc57600080fd5b50610117600480360381019061011291906118bf565b6105ae565b005b34801561012557600080fd5b50610140600480360381019061013b9190611a45565b6108c4565b005b34801561014e57600080fd5b5061016960048036038101906101649190611bc2565b610984565b6040516101769190611c40565b60405180910390f35b610199600480360381019061019491906118bf565b610ab0565b005b3480156101a757600080fd5b506101b0611089565b6040516101bd9190611c40565b60405180910390f35b3480156101d257600080fd5b506101ed60048036038101906101e89190611c5b565b61108f565b005b3480156101fb57600080fd5b5061021660048036038101906102119190611c88565b6110d3565b6040516102239190611c40565b60405180910390f35b34801561023857600080fd5b50610253600480360381019061024e91906118bf565b611208565b6040516102669796959493929190611cf2565b60405180910390f35b34801561027b57600080fd5b50610296600480360381019061029191906118bf565b6112a4565b6040516102a39190611e1f565b60405180910390f35b3480156102b857600080fd5b506102d360048036038101906102ce91906118bf565b611348565b005b3480156102e157600080fd5b506102ea6115aa565b6040516102f79190611ea0565b60405180910390f35b34801561030c57600080fd5b50610327600480360381019061032291906118bf565b6115d0565b6040516103349190611c40565b60405180910390f35b60006004600083815260200190815260200160002090508060030160159054906101000a900460ff16156103a6576040517f08c379a000000000000000000000000000000000000000000000000000000000815260040161039d90611f3e565b60405180910390fd5b8060030160149054906101000a900460ff16156103f8576040517f08c379a00000000000000000000000000000000000000000000000000000000081526004016103ef90611faa565b60405180910390fd5b600081600401541161043f576040517f08c379a000000000000000000000000000000000000000000000000000000000815260040161043690612016565b60405180910390fd5b60005b816000018054905081101561050c573373ffffffffffffffffffffffffffffffffffffffff1682600001828154811061047e5761047d612036565b5b9060005260206000200160009054906101000a900473ffffffffffffffffffffffffffffffffffffffff1673ffffffffffffffffffffffffffffffffffffffff16036104ff576040517f08c379a00000000000000000000000000000000000000000000000000000000081526004016104f6906120b1565b60405180910390fd5b8080600101915050610442565b5080600001339080600181540180825580915050600190039060005260206000200160009091909190916101000a81548173ffffffffffffffffffffffffffffffffffffffff021916908373ffffffffffffffffffffffffffffffffffffffff160217905550817f7dd8cb04159701bc1976c246434d7d96812782e7489e6c5c34db49a388fe9e80336040516105a291906120d1565b60405180910390a25050565b60006004600083815260200190815260200160002090508060030160149054906101000a900460ff1615610617576040517f08c379a000000000000000000000000000000000000000000000000000000000815260040161060e90611faa565b60405180910390fd5b8060030160159054906101000a900460ff1615610669576040517f08c379a000000000000000000000000000000000000000000000000000000000815260040161066090612138565b60405180910390fd5b600073ffffffffffffffffffffffffffffffffffffffff168160030160009054906101000a900473ffffffffffffffffffffffffffffffffffffffff1673ffffffffffffffffffffffffffffffffffffffff16146106fc576040517f08c379a00000000000000000000000000000000000000000000000000000000081526004016106f3906121a4565b60405180910390fd5b6001816000018054905011610746576040517f08c379a000000000000000000000000000000000000000000000000000000000815260040161073d90612210565b60405180910390fd5b60018160030160156101000a81548160ff021916908315150217905550817fd8a87f91bfa6ae43ccb649fa4d7c5d1f140cfcb52a2222fc1c28865ef75045ad60405160405180910390a2600081600001805490504244336040516020016107af93929190612299565b6040516020818303038152906040528051906020012060001c6107d29190612305565b90508160000181815481106107ea576107e9612036565b5b9060005260206000200160009054906101000a900473ffffffffffffffffffffffffffffffffffffffff168260030160006101000a81548173ffffffffffffffffffffffffffffffffffffffff021916908373ffffffffffffffffffffffffffffffffffffffff1602179055508160030160009054906101000a900473ffffffffffffffffffffffffffffffffffffffff1673ffffffffffffffffffffffffffffffffffffffff16837fee1a22d8143e3922a069c0eeaf5355674b715c3a7fde53ad30aa7da8af25004860405160405180910390a3505050565b7f000000000000000000000000000000000000000000000000000000000000000073ffffffffffffffffffffffffffffffffffffffff163373ffffffffffffffffffffffffffffffffffffffff161461097657337f00000000000000000000000000000000000000000000000000000000000000006040517f1cf993f400000000000000000000000000000000000000000000000000000000815260040161096d929190612336565b60405180910390fd5b61098082826115e8565b5050565b600060018451116109ca576040517f08c379a00000000000000000000000000000000000000000000000000000000081526004016109c1906123ab565b60405180910390fd5b6000600660008154809291906109df906123fa565b919050559050600060046000838152602001908152602001600020905085816000019080519060200190610a149291906117ce565b50848160010181905550838160020160006101000a81548173ffffffffffffffffffffffffffffffffffffffff021916908373ffffffffffffffffffffffffffffffffffffffff160217905550428160040181905550817ff72af5b48cb2dc0da34a418b0162051d9a1624b4e5ed3cc78963a6cd6b124f7d8787604051610a9c929190612442565b60405180910390a281925050509392505050565b6000600460008381526020019081526020016000209050600073ffffffffffffffffffffffffffffffffffffffff168160030160009054906101000a900473ffffffffffffffffffffffffffffffffffffffff1673ffffffffffffffffffffffffffffffffffffffff1603610b5a576040517f08c379a0000000000000000000000000000000000000000000000000000000008152600401610b51906124be565b60405180910390fd5b8060030160149054906101000a900460ff1615610bac576040517f08c379a0000000000000000000000000000000000000000000000000000000008152600401610ba39061252a565b60405180910390fd5b8060030160009054906101000a900473ffffffffffffffffffffffffffffffffffffffff1673ffffffffffffffffffffffffffffffffffffffff163373ffffffffffffffffffffffffffffffffffffffff1614610c3e576040517f08c379a0000000000000000000000000000000000000000000000000000000008152600401610c3590612596565b60405180910390fd5b8060010154341015610c85576040517f08c379a0000000000000000000000000000000000000000000000000000000008152600401610c7c90612602565b60405180910390fd5b60018160030160146101000a81548160ff02191690831515021790555060008160020160009054906101000a900473ffffffffffffffffffffffffffffffffffffffff1673ffffffffffffffffffffffffffffffffffffffff1634604051610cec90612653565b60006040518083038185875af1925050503d8060008114610d29576040519150601f19603f3d011682016040523d82523d6000602084013e610d2e565b606091505b5050905080610d72576040517f08c379a0000000000000000000000000000000000000000000000000000000008152600401610d69906126b4565b60405180910390fd5b600073ffffffffffffffffffffffffffffffffffffffff16600760009054906101000a900473ffffffffffffffffffffffffffffffffffffffff1673ffffffffffffffffffffffffffffffffffffffff1614611035576000600760009054906101000a900473ffffffffffffffffffffffffffffffffffffffff1673ffffffffffffffffffffffffffffffffffffffff1663f5474e12336040518263ffffffff1660e01b8152600401610e2591906120d1565b602060405180830381865afa158015610e42573d6000803e3d6000fd5b505050506040513d601f19601f82011682018060405250810190610e6691906126e9565b905060008103610fa357600760009054906101000a900473ffffffffffffffffffffffffffffffffffffffff1673ffffffffffffffffffffffffffffffffffffffff16634a36f6e4336040518263ffffffff1660e01b8152600401610ecb91906120d1565b6020604051808303816000875af1158015610eea573d6000803e3d6000fd5b505050506040513d601f19601f82011682018060405250810190610f0e91906126e9565b50600760009054906101000a900473ffffffffffffffffffffffffffffffffffffffff1673ffffffffffffffffffffffffffffffffffffffff166391aaaf3733346040518363ffffffff1660e01b8152600401610f6c929190612716565b600060405180830381600087803b158015610f8657600080fd5b505af1158015610f9a573d6000803e3d6000fd5b50505050611033565b600760009054906101000a900473ffffffffffffffffffffffffffffffffffffffff1673ffffffffffffffffffffffffffffffffffffffff166391aaaf3733346040518363ffffffff1660e01b8152600401611000929190612716565b600060405180830381600087803b15801561101a57600080fd5b505af115801561102e573d6000803e3d6000fd5b505050505b505b3373ffffffffffffffffffffffffffffffffffffffff16837f90fe20ec2825e11e06afdcbf41b604101d2ce121c29c84e4f62d4bc1fda709b93460405161107c9190611c40565b60405180910390a3505050565b60065481565b80600760006101000a81548173ffffffffffffffffffffffffffffffffffffffff021916908373ffffffffffffffffffffffffffffffffffffffff16021790555050565b600080600660008154809291906110e9906123fa565b9190505590506000600460008381526020019081526020016000209050848160010181905550838160020160006101000a81548173ffffffffffffffffffffffffffffffffffffffff021916908373ffffffffffffffffffffffffffffffffffffffff16021790555042816004018190555080600001339080600181540180825580915050600190039060005260206000200160009091909190916101000a81548173ffffffffffffffffffffffffffffffffffffffff021916908373ffffffffffffffffffffffffffffffffffffffff160217905550817ff72af5b48cb2dc0da34a418b0162051d9a1624b4e5ed3cc78963a6cd6b124f7d82600001876040516111f592919061282b565b60405180910390a2819250505092915050565b60046020528060005260406000206000915090508060010154908060020160009054906101000a900473ffffffffffffffffffffffffffffffffffffffff16908060030160009054906101000a900473ffffffffffffffffffffffffffffffffffffffff16908060030160149054906101000a900460ff16908060030160159054906101000a900460ff16908060040154908060050154905087565b60606004600083815260200190815260200160002060000180548060200260200160405190810160405280929190818152602001828054801561133c57602002820191906000526020600020905b8160009054906101000a900473ffffffffffffffffffffffffffffffffffffffff1673ffffffffffffffffffffffffffffffffffffffff16815260200190600101908083116112f2575b50505050509050919050565b60006004600083815260200190815260200160002090508060030160149054906101000a900460ff16156113b1576040517f08c379a00000000000000000000000000000000000000000000000000000000081526004016113a890611faa565b60405180910390fd5b600073ffffffffffffffffffffffffffffffffffffffff168160030160009054906101000a900473ffffffffffffffffffffffffffffffffffffffff1673ffffffffffffffffffffffffffffffffffffffff1614611444576040517f08c379a000000000000000000000000000000000000000000000000000000000815260040161143b906121a4565b60405180910390fd5b60018160030160156101000a81548160ff02191690831515021790555060008060009054906101000a900473ffffffffffffffffffffffffffffffffffffffff1673ffffffffffffffffffffffffffffffffffffffff16635d3b1d30600254600360009054906101000a900467ffffffffffffffff166003600c9054906101000a900461ffff16600360089054906101000a900463ffffffff166003600e9054906101000a900463ffffffff166040518663ffffffff1660e01b81526004016115119594939291906128d3565b6020604051808303816000875af1158015611530573d6000803e3d6000fd5b505050506040513d601f19601f8201168201806040525081019061155491906126e9565b905080826005018190555082600560008381526020019081526020016000208190555082817f3d94fecedaa4f90b8bd459797adb95f5bb11426025c5541390d9ccc1ad1b60a160405160405180910390a3505050565b600760009054906101000a900473ffffffffffffffffffffffffffffffffffffffff1681565b60056020528060005260406000206000915090505481565b6000600560008481526020019081526020016000205490506000600460008381526020019081526020016000209050600073ffffffffffffffffffffffffffffffffffffffff168160030160009054906101000a900473ffffffffffffffffffffffffffffffffffffffff1673ffffffffffffffffffffffffffffffffffffffff16146116aa576040517f08c379a00000000000000000000000000000000000000000000000000000000081526004016116a1906121a4565b60405180910390fd5b60008160000180549050846000815181106116c8576116c7612036565b5b60200260200101516116da9190612305565b90508160000181815481106116f2576116f1612036565b5b9060005260206000200160009054906101000a900473ffffffffffffffffffffffffffffffffffffffff168260030160006101000a81548173ffffffffffffffffffffffffffffffffffffffff021916908373ffffffffffffffffffffffffffffffffffffffff1602179055508160030160009054906101000a900473ffffffffffffffffffffffffffffffffffffffff1673ffffffffffffffffffffffffffffffffffffffff16837fee1a22d8143e3922a069c0eeaf5355674b715c3a7fde53ad30aa7da8af25004860405160405180910390a35050505050565b828054828255906000526020600020908101928215611847579160200282015b828111156118465782518260006101000a81548173ffffffffffffffffffffffffffffffffffffffff021916908373ffffffffffffffffffffffffffffffffffffffff160217905550916020019190600101906117ee565b5b5090506118549190611858565b5090565b5b80821115611871576000816000905550600101611859565b5090565b6000604051905090565b600080fd5b600080fd5b6000819050919050565b61189c81611889565b81146118a757600080fd5b50565b6000813590506118b981611893565b92915050565b6000602082840312156118d5576118d461187f565b5b60006118e3848285016118aa565b91505092915050565b600080fd5b6000601f19601f8301169050919050565b7f4e487b7100000000000000000000000000000000000000000000000000000000600052604160045260246000fd5b61193a826118f1565b810181811067ffffffffffffffff8211171561195957611958611902565b5b80604052505050565b600061196c611875565b90506119788282611931565b919050565b600067ffffffffffffffff82111561199857611997611902565b5b602082029050602081019050919050565b600080fd5b60006119c16119bc8461197d565b611962565b905080838252602082019050602084028301858111156119e4576119e36119a9565b5b835b81811015611a0d57806119f988826118aa565b8452602084019350506020810190506119e6565b5050509392505050565b600082601f830112611a2c57611a2b6118ec565b5b8135611a3c8482602086016119ae565b91505092915050565b60008060408385031215611a5c57611a5b61187f565b5b6000611a6a858286016118aa565b925050602083013567ffffffffffffffff811115611a8b57611a8a611884565b5b611a9785828601611a17565b9150509250929050565b600067ffffffffffffffff821115611abc57611abb611902565b5b602082029050602081019050919050565b600073ffffffffffffffffffffffffffffffffffffffff82169050919050565b6000611af882611acd565b9050919050565b611b0881611aed565b8114611b1357600080fd5b50565b600081359050611b2581611aff565b92915050565b6000611b3e611b3984611aa1565b611962565b90508083825260208201905060208402830185811115611b6157611b606119a9565b5b835b81811015611b8a5780611b768882611b16565b845260208401935050602081019050611b63565b5050509392505050565b600082601f830112611ba957611ba86118ec565b5b8135611bb9848260208601611b2b565b91505092915050565b600080600060608486031215611bdb57611bda61187f565b5b600084013567ffffffffffffffff811115611bf957611bf8611884565b5b611c0586828701611b94565b9350506020611c16868287016118aa565b9250506040611c2786828701611b16565b9150509250925092565b611c3a81611889565b82525050565b6000602082019050611c556000830184611c31565b92915050565b600060208284031215611c7157611c7061187f565b5b6000611c7f84828501611b16565b91505092915050565b60008060408385031215611c9f57611c9e61187f565b5b6000611cad858286016118aa565b9250506020611cbe85828601611b16565b9150509250929050565b611cd181611aed565b82525050565b60008115159050919050565b611cec81611cd7565b82525050565b600060e082019050611d07600083018a611c31565b611d146020830189611cc8565b611d216040830188611cc8565b611d2e6060830187611ce3565b611d3b6080830186611ce3565b611d4860a0830185611c31565b611d5560c0830184611c31565b98975050505050505050565b600081519050919050565b600082825260208201905092915050565b6000819050602082019050919050565b611d9681611aed565b82525050565b6000611da88383611d8d565b60208301905092915050565b6000602082019050919050565b6000611dcc82611d61565b611dd68185611d6c565b9350611de183611d7d565b8060005b83811015611e12578151611df98882611d9c565b9750611e0483611db4565b925050600181019050611de5565b5085935050505092915050565b60006020820190508181036000830152611e398184611dc1565b905092915050565b6000819050919050565b6000611e66611e61611e5c84611acd565b611e41565b611acd565b9050919050565b6000611e7882611e4b565b9050919050565b6000611e8a82611e6d565b9050919050565b611e9a81611e7f565b82525050565b6000602082019050611eb56000830184611e91565b92915050565b600082825260208201905092915050565b7f53657373696f6e20697320616c7265616479207370696e6e696e672f6c6f636b60008201527f6564000000000000000000000000000000000000000000000000000000000000602082015250565b6000611f28602283611ebb565b9150611f3382611ecc565b604082019050919050565b60006020820190508181036000830152611f5781611f1b565b9050919050565b7f53657373696f6e20616c726561647920636f6d706c6574656400000000000000600082015250565b6000611f94601983611ebb565b9150611f9f82611f5e565b602082019050919050565b60006020820190508181036000830152611fc381611f87565b9050919050565b7f53657373696f6e20646f6573206e6f7420657869737400000000000000000000600082015250565b6000612000601683611ebb565b915061200b82611fca565b602082019050919050565b6000602082019050818103600083015261202f81611ff3565b9050919050565b7f4e487b7100000000000000000000000000000000000000000000000000000000600052603260045260246000fd5b7f416c7265616479206a6f696e6564000000000000000000000000000000000000600082015250565b600061209b600e83611ebb565b91506120a682612065565b602082019050919050565b600060208201905081810360008301526120ca8161208e565b9050919050565b60006020820190506120e66000830184611cc8565b92915050565b7f53657373696f6e20616c7265616479206c6f636b656400000000000000000000600082015250565b6000612122601683611ebb565b915061212d826120ec565b602082019050919050565b6000602082019050818103600083015261215181612115565b9050919050565b7f506179657220616c72656164792073656c656374656400000000000000000000600082015250565b600061218e601683611ebb565b915061219982612158565b602082019050919050565b600060208201905081810360008301526121bd81612181565b9050919050565b7f4e6f7420656e6f756768207061727469636970616e7473000000000000000000600082015250565b60006121fa601783611ebb565b9150612205826121c4565b602082019050919050565b60006020820190508181036000830152612229816121ed565b9050919050565b6000819050919050565b61224b61224682611889565b612230565b82525050565b60008160601b9050919050565b600061226982612251565b9050919050565b600061227b8261225e565b9050919050565b61229361228e82611aed565b612270565b82525050565b60006122a5828661223a565b6020820191506122b5828561223a565b6020820191506122c58284612282565b601482019150819050949350505050565b7f4e487b7100000000000000000000000000000000000000000000000000000000600052601260045260246000fd5b600061231082611889565b915061231b83611889565b92508261232b5761232a6122d6565b5b828206905092915050565b600060408201905061234b6000830185611cc8565b6123586020830184611cc8565b9392505050565b7f4174206c656173742032207061727469636970616e7473207265717569726564600082015250565b6000612395602083611ebb565b91506123a08261235f565b602082019050919050565b600060208201905081810360008301526123c481612388565b9050919050565b7f4e487b7100000000000000000000000000000000000000000000000000000000600052601160045260246000fd5b600061240582611889565b91507fffffffffffffffffffffffffffffffffffffffffffffffffffffffffffffffff8203612437576124366123cb565b5b600182019050919050565b6000604082019050818103600083015261245c8185611dc1565b905061246b6020830184611c31565b9392505050565b7f5061796572206e6f742073656c65637465642079657400000000000000000000600082015250565b60006124a8601683611ebb565b91506124b382612472565b602082019050919050565b600060208201905081810360008301526124d78161249b565b9050919050565b7f5061796d656e7420616c726561647920636f6d706c6574656400000000000000600082015250565b6000612514601983611ebb565b915061251f826124de565b602082019050919050565b6000602082019050818103600083015261254381612507565b9050919050565b7f4f6e6c79207468652073656c65637465642070617965722063616e2070617900600082015250565b6000612580601f83611ebb565b915061258b8261254a565b602082019050919050565b600060208201905081810360008301526125af81612573565b9050919050565b7f496e73756666696369656e74207061796d656e74000000000000000000000000600082015250565b60006125ec601483611ebb565b91506125f7826125b6565b602082019050919050565b6000602082019050818103600083015261261b816125df565b9050919050565b600081905092915050565b50565b600061263d600083612622565b91506126488261262d565b600082019050919050565b600061265e82612630565b9150819050919050565b7f5472616e7366657220746f206d65726368616e74206661696c65640000000000600082015250565b600061269e601b83611ebb565b91506126a982612668565b602082019050919050565b600060208201905081810360008301526126cd81612691565b9050919050565b6000815190506126e381611893565b92915050565b6000602082840312156126ff576126fe61187f565b5b600061270d848285016126d4565b91505092915050565b600060408201905061272b6000830185611cc8565b6127386020830184611c31565b9392505050565b600081549050919050565b60008190508160005260206000209050919050565b60008160001c9050919050565b600073ffffffffffffffffffffffffffffffffffffffff82169050919050565b600061279f61279a8361275f565b61276c565b9050919050565b60006127b2825461278c565b9050919050565b6000600182019050919050565b60006127d18261273f565b6127db8185611d6c565b93506127e68361274a565b8060005b8381101561281e576127fb826127a6565b6128058882611d9c565b9750612810836127b9565b9250506001810190506127ea565b5085935050505092915050565b6000604082019050818103600083015261284581856127c6565b90506128546020830184611c31565b9392505050565b6000819050919050565b61286e8161285b565b82525050565b600067ffffffffffffffff82169050919050565b61289181612874565b82525050565b600061ffff82169050919050565b6128ae81612897565b82525050565b600063ffffffff82169050919050565b6128cd816128b4565b82525050565b600060a0820190506128e86000830188612865565b6128f56020830187612888565b61290260408301866128a5565b61290f60608301856128c4565b61291c60808301846128c4565b969550505050505056fea2646970667358221220e3359361f301b9b4018d3799fb29d3791715155dbeceb1aafca658c8e573189664736f6c63430008180033",
  "linkReferences": {},
  "deployedLinkReferences": {}
}